{
  "_format": "hh-sol-artifact-1",
  "contractName": "Voting",
  "sourceName": "contracts/Voting.sol",
  "abi": [
    {
      "inputs": [],
      "stateMutability": "nonpayable",
      "type": "constructor"
    },
    {
      "inputs": [
        {
          "internalType": "address",
          "name": "owner",
          "type": "address"
        }
      ],
      "name": "OwnableInvalidOwner",
      "type": "error"
    },
    {
      "inputs": [
        {
          "internalType": "address",
          "name": "account",
          "type": "address"
        }
      ],
      "name": "OwnableUnauthorizedAccount",
      "type": "error"
    },
    {
      "anonymous": false,
      "inputs": [
        {
          "indexed": true,
          "internalType": "address",
          "name": "previousOwner",
          "type": "address"
        },
        {
          "indexed": true,
          "internalType": "address",
          "name": "newOwner",
          "type": "address"
        }
      ],
      "name": "OwnershipTransferred",
      "type": "event"
    },
    {
      "anonymous": false,
      "inputs": [
        {
          "indexed": false,
          "internalType": "uint256",
          "name": "proposalId",
          "type": "uint256"
        }
      ],
      "name": "ProposalRegistered",
      "type": "event"
    },
    {
      "anonymous": false,
      "inputs": [
        {
          "indexed": false,
          "internalType": "uint256",
          "name": "id",
          "type": "uint256"
        },
        {
          "indexed": false,
          "internalType": "string",
          "name": "description",
          "type": "string"
        }
      ],
      "name": "SeeProposal",
      "type": "event"
    },
    {
      "anonymous": false,
      "inputs": [
        {
          "indexed": false,
          "internalType": "address",
          "name": "voter",
          "type": "address"
        },
        {
          "indexed": false,
          "internalType": "uint256",
          "name": "proposalId",
          "type": "uint256"
        }
      ],
      "name": "Voted",
      "type": "event"
    },
    {
      "anonymous": false,
      "inputs": [
        {
          "indexed": false,
          "internalType": "address",
          "name": "voterAddress",
          "type": "address"
        }
      ],
      "name": "VoterRegistered",
      "type": "event"
    },
    {
      "anonymous": false,
      "inputs": [
        {
          "indexed": false,
          "internalType": "enum Voting.WorkflowStatus",
          "name": "previousStatus",
          "type": "uint8"
        },
        {
          "indexed": false,
          "internalType": "enum Voting.WorkflowStatus",
          "name": "newStatus",
          "type": "uint8"
        }
      ],
      "name": "WorkflowStatusChange",
      "type": "event"
    },
    {
      "inputs": [],
      "name": "countVotes",
      "outputs": [],
      "stateMutability": "nonpayable",
      "type": "function"
    },
    {
      "inputs": [],
      "name": "getAllProposals",
      "outputs": [
        {
          "internalType": "string[]",
          "name": "",
          "type": "string[]"
        }
      ],
      "stateMutability": "view",
      "type": "function"
    },
    {
      "inputs": [],
      "name": "getWinningProposalId",
      "outputs": [
        {
          "internalType": "uint256",
          "name": "",
          "type": "uint256"
        }
      ],
      "stateMutability": "view",
      "type": "function"
    },
    {
      "inputs": [],
      "name": "owner",
      "outputs": [
        {
          "internalType": "address",
          "name": "",
          "type": "address"
        }
      ],
      "stateMutability": "view",
      "type": "function"
    },
    {
      "inputs": [
        {
          "internalType": "address",
          "name": "_voterAddress",
          "type": "address"
        }
      ],
      "name": "registerVoter",
      "outputs": [],
      "stateMutability": "nonpayable",
      "type": "function"
    },
    {
      "inputs": [],
      "name": "renounceOwnership",
      "outputs": [],
      "stateMutability": "nonpayable",
      "type": "function"
    },
    {
      "inputs": [],
      "name": "startProposalRegistrationSession",
      "outputs": [],
      "stateMutability": "nonpayable",
      "type": "function"
    },
    {
      "inputs": [],
      "name": "startVotingSession",
      "outputs": [],
      "stateMutability": "nonpayable",
      "type": "function"
    },
    {
      "inputs": [],
      "name": "stopProposalRegistrationSession",
      "outputs": [],
      "stateMutability": "nonpayable",
      "type": "function"
    },
    {
      "inputs": [],
      "name": "stopVotingSession",
      "outputs": [],
      "stateMutability": "nonpayable",
      "type": "function"
    },
    {
      "inputs": [
        {
          "internalType": "string",
          "name": "_proposal",
          "type": "string"
        }
      ],
      "name": "submitProposal",
      "outputs": [],
      "stateMutability": "nonpayable",
      "type": "function"
    },
    {
      "inputs": [
        {
          "internalType": "address",
          "name": "newOwner",
          "type": "address"
        }
      ],
      "name": "transferOwnership",
      "outputs": [],
      "stateMutability": "nonpayable",
      "type": "function"
    },
    {
      "inputs": [
        {
          "internalType": "uint256",
          "name": "_proposalId",
          "type": "uint256"
        }
      ],
      "name": "vote",
      "outputs": [],
      "stateMutability": "nonpayable",
      "type": "function"
    }
  ],
  "bytecode": "0x608060405234801561001057600080fd5b50338061003757604051631e4fbdf760e01b81526000600482015260240160405180910390fd5b61004081610050565b506006805460ff191690556100a0565b600080546001600160a01b038381166001600160a01b0319831681178455604051919092169283917f8be0079c531659141344cd1fd0a4f28419497f9722a3daafe3b4186f6b6457e09190a35050565b6112c4806100af6000396000f3fe608060405234801561001057600080fd5b50600436106100cf5760003560e01c80638da5cb5b1161008c578063cceb68f511610066578063cceb68f514610157578063e81e977b1461016c578063ee74c67814610182578063f2fde38b1461018a57600080fd5b80638da5cb5b146101275780638efca69d14610147578063b647990a1461014f57600080fd5b80630121b93f146100d45780630e76ab1d146100e957806317a0ad8e146100f1578063373d6d5e146100f957806338db6dd31461010c578063715018a61461011f575b600080fd5b6100e76100e2366004610dae565b61019d565b005b6100e761038c565b6100e7610406565b6100e7610107366004610ddd565b610475565b6100e761011a366004610e8e565b6105b6565b6100e76106f0565b6000546040516001600160a01b0390911681526020015b60405180910390f35b6100e7610704565b6100e7610773565b61015f6109d1565b60405161013e9190610ebe565b610174610b50565b60405190815260200161013e565b6100e7610b91565b6100e7610198366004610e8e565b610c00565b60038060065460ff1660058111156101b7576101b7610f50565b146101dd5760405162461bcd60e51b81526004016101d490610f66565b60405180910390fd5b3360009081526001602052604090205460ff1661023c5760405162461bcd60e51b815260206004820152601c60248201527f54686520766f746572206973206e6f742072656769737465726564210000000060448201526064016101d4565b33600090815260016020526040902054610100900460ff16156102a15760405162461bcd60e51b815260206004820152601c60248201527f54686520766f7465722068617320616c726561647920766f746564210000000060448201526064016101d4565b60035482106102f25760405162461bcd60e51b815260206004820152601b60248201527f5468652070726f706f73616c20646f65736e277420657869737421000000000060448201526064016101d4565b60016003838154811061030757610307610f9d565b906000526020600020906002020160010160008282546103279190610fc9565b909155505033600081815260016020818152604092839020805461ff001916610100178155909101859055815192835282018490527f4d99b957a2bc29a30ebd96a7be8e68fe50a3c701db28a91436490b7d53870ca491015b60405180910390a15050565b610394610c3e565b60018060065460ff1660058111156103ae576103ae610f50565b146103cb5760405162461bcd60e51b81526004016101d490610f66565b6006805460ff1916600290811790915560405160008051602061126f833981519152916103fb9160019190611004565b60405180910390a150565b61040e610c3e565b60038060065460ff16600581111561042857610428610f50565b146104455760405162461bcd60e51b81526004016101d490610f66565b6006805460ff1916600490811790915560405160008051602061126f833981519152916103fb9160039190611004565b60018060065460ff16600581111561048f5761048f610f50565b146104ac5760405162461bcd60e51b81526004016101d490610f66565b3360009081526001602052604090205460ff1661050b5760405162461bcd60e51b815260206004820152601c60248201527f54686520766f746572206973206e6f742072656769737465726564210000000060448201526064016101d4565b60408051808201909152600060208201819052838252600380546001810182559152815182916002027fc2575a0e9e593c00f959f8c92f12db2869c3395a3b0502d05e2516446f71f85b0190819061056390826110a7565b50602091909101516001918201556003547f92e393e9b54e2f801d3ea4beb0c5e71a21cc34a5d34b77d0fb8a3aa1650dc18f9161059f91611167565b6040519081526020015b60405180910390a1505050565b6105be610c3e565b60008060065460ff1660058111156105d8576105d8610f50565b146105f55760405162461bcd60e51b81526004016101d490610f66565b6001600160a01b03821660009081526001602052604090205460ff161561065e5760405162461bcd60e51b815260206004820181905260248201527f54686520766f74657220697320616c726561647920726567697374657265642160448201526064016101d4565b6001600160a01b0382166000818152600160208181526040808420805460ff1916841790556002805493840181559093527f405787fa12a823e0f2b7631cc41b3ba8828b3321ca811111fa75cd3aa3bb5ace90910180546001600160a01b0319168417905590519182527fb6be2187d059cc2a55fe29e0e503b566e1e0f8c8780096e185429350acffd3dd9101610380565b6106f8610c3e565b6107026000610c6b565b565b61070c610c3e565b60008060065460ff16600581111561072657610726610f50565b146107435760405162461bcd60e51b81526004016101d490610f66565b6006805460ff1916600190811790915560405160008051602061126f833981519152916103fb9160009190611004565b61077b610c3e565b60048060065460ff16600581111561079557610795610f50565b146107b25760405162461bcd60e51b81526004016101d490610f66565b60008060005b60035481101561082b5782600382815481106107d6576107d6610f9d565b9060005260206000209060020201600101541115610819576003818154811061080157610801610f9d565b90600052602060002090600202016001015492508091505b806108238161117a565b9150506107b8565b5061083860046000610cbb565b60005b6003548110156108cf57826003828154811061085957610859610f9d565b906000526020600020906002020160010154036108bd5760046003828154811061088557610885610f9d565b60009182526020808320845460018101865594845292206002918202909201920201806108b28382611193565b506001918201549101555b806108c78161117a565b91505061083b565b506004546001101561099b576108e760036000610cbb565b600480546108f791600391610cdc565b5060005b60025481101561096a576000600160006002848154811061091e5761091e610f9d565b60009182526020808320909101546001600160a01b03168352820192909252604001902080549115156101000261ff0019909216919091179055806109628161117a565b9150506108fb565b506006805460ff1916600390811790915560405160008051602061126f833981519152916105a99160049190611004565b60058181556006805460ff19168217905560405160008051602061126f833981519152916105a99160049190611004565b505050565b606060038060065460ff1660058111156109ed576109ed610f50565b14610a0a5760405162461bcd60e51b81526004016101d490610f66565b60035460009067ffffffffffffffff811115610a2857610a28610dc7565b604051908082528060200260200182016040528015610a5b57816020015b6060815260200190600190039081610a465790505b50905060005b600354811015610b485760038181548110610a7e57610a7e610f9d565b90600052602060002090600202016000018054610a9a9061101f565b80601f0160208091040260200160405190810160405280929190818152602001828054610ac69061101f565b8015610b135780601f10610ae857610100808354040283529160200191610b13565b820191906000526020600020905b815481529060010190602001808311610af657829003601f168201915b5050505050828281518110610b2a57610b2a610f9d565b60200260200101819052508080610b409061117a565b915050610a61565b5091505b5090565b600060058060065460ff166005811115610b6c57610b6c610f50565b14610b895760405162461bcd60e51b81526004016101d490610f66565b505060055490565b610b99610c3e565b60028060065460ff166005811115610bb357610bb3610f50565b14610bd05760405162461bcd60e51b81526004016101d490610f66565b6006805460ff1916600390811790915560405160008051602061126f833981519152916103fb9160029190611004565b610c08610c3e565b6001600160a01b038116610c3257604051631e4fbdf760e01b8152600060048201526024016101d4565b610c3b81610c6b565b50565b6000546001600160a01b031633146107025760405163118cdaa760e01b81523360048201526024016101d4565b600080546001600160a01b038381166001600160a01b0319831681178455604051919092169283917f8be0079c531659141344cd1fd0a4f28419497f9722a3daafe3b4186f6b6457e09190a35050565b5080546000825560020290600052602060002090810190610c3b9190610d40565b828054828255906000526020600020906002028101928215610d385760005260206000209160020282015b82811115610d3857828280610d1c8382611193565b5060018201548160010155505091600201919060020190610d07565b50610b4c9291505b80821115610b4c576000610d548282610d64565b5060006001820155600201610d40565b508054610d709061101f565b6000825580601f10610d80575050565b601f016020900490600052602060002090810190610c3b91905b80821115610b4c5760008155600101610d9a565b600060208284031215610dc057600080fd5b5035919050565b634e487b7160e01b600052604160045260246000fd5b600060208284031215610def57600080fd5b813567ffffffffffffffff80821115610e0757600080fd5b818401915084601f830112610e1b57600080fd5b813581811115610e2d57610e2d610dc7565b604051601f8201601f19908116603f01168101908382118183101715610e5557610e55610dc7565b81604052828152876020848701011115610e6e57600080fd5b826020860160208301376000928101602001929092525095945050505050565b600060208284031215610ea057600080fd5b81356001600160a01b0381168114610eb757600080fd5b9392505050565b6000602080830181845280855180835260408601915060408160051b87010192508387016000805b83811015610f4257888603603f1901855282518051808852835b81811015610f1b578281018a01518982018b01528901610f00565b508781018901849052601f01601f1916909601870195509386019391860191600101610ee6565b509398975050505050505050565b634e487b7160e01b600052602160045260246000fd5b60208082526018908201527f49742773206e6f742074686520676f6f642073746167652e0000000000000000604082015260600190565b634e487b7160e01b600052603260045260246000fd5b634e487b7160e01b600052601160045260246000fd5b80820180821115610fdc57610fdc610fb3565b92915050565b6006811061100057634e487b7160e01b600052602160045260246000fd5b9052565b604081016110128285610fe2565b610eb76020830184610fe2565b600181811c9082168061103357607f821691505b60208210810361105357634e487b7160e01b600052602260045260246000fd5b50919050565b601f8211156109cc57600081815260208120601f850160051c810160208610156110805750805b601f850160051c820191505b8181101561109f5782815560010161108c565b505050505050565b815167ffffffffffffffff8111156110c1576110c1610dc7565b6110d5816110cf845461101f565b84611059565b602080601f83116001811461110a57600084156110f25750858301515b600019600386901b1c1916600185901b17855561109f565b600085815260208120601f198616915b828110156111395788860151825594840194600190910190840161111a565b50858210156111575787850151600019600388901b60f8161c191681555b5050505050600190811b01905550565b81810381811115610fdc57610fdc610fb3565b60006001820161118c5761118c610fb3565b5060010190565b81810361119e575050565b6111a8825461101f565b67ffffffffffffffff8111156111c0576111c0610dc7565b6111ce816110cf845461101f565b6000601f82116001811461120257600083156111ea5750848201545b600019600385901b1c1916600184901b178455611267565b600085815260209020601f19841690600086815260209020845b8381101561123c578286015482556001958601959091019060200161121c565b508583101561125a5781850154600019600388901b60f8161c191681555b50505060018360011b0184555b505050505056fe0a97a4ee45751e2abf3e4fc8946939630b11b371ea8ae39ccdc3056e98f5cc3fa2646970667358221220480b44989de64939feb7ff0647ddb1288c0faee6449891cd171bfa2df68eb5eb64736f6c63430008140033",
  "linkReferences": {},
  "deployedLinkReferences": {}
}